{
  "abi": [
    {
      "inputs": [
        {
          "internalType": "address",
          "name": "_rewardsDistribution",
          "type": "address"
        },
        {
          "internalType": "address",
          "name": "_rewardsToken",
          "type": "address"
        },
        {
          "internalType": "address",
          "name": "_stakingToken",
          "type": "address"
        },
        {
          "internalType": "address payable",
          "name": "_collectionAddress",
          "type": "address"
        }
      ],
      "payable": false,
      "stateMutability": "nonpayable",
      "type": "constructor"
    },
    {
      "anonymous": false,
      "inputs": [
        {
          "indexed": false,
          "internalType": "address payable",
          "name": "collectionAddress",
          "type": "address"
        },
        {
          "indexed": false,
          "internalType": "uint256",
          "name": "collectionAddfee",
          "type": "uint256"
        }
      ],
      "name": "CollectionAddPaid",
      "type": "event"
    },
    {
      "anonymous": false,
      "inputs": [
        {
          "indexed": false,
          "internalType": "uint256",
          "name": "reward",
          "type": "uint256"
        }
      ],
      "name": "RewardAdded",
      "type": "event"
    },
    {
      "anonymous": false,
      "inputs": [
        {
          "indexed": true,
          "internalType": "address",
          "name": "user",
          "type": "address"
        },
        {
          "indexed": false,
          "internalType": "uint256",
          "name": "reward",
          "type": "uint256"
        }
      ],
      "name": "RewardPaid",
      "type": "event"
    },
    {
      "anonymous": false,
      "inputs": [
        {
          "indexed": false,
          "internalType": "uint256",
          "name": "reward",
          "type": "uint256"
        }
      ],
      "name": "RewardUpdated",
      "type": "event"
    },
    {
      "anonymous": false,
      "inputs": [
        {
          "indexed": true,
          "internalType": "address",
          "name": "user",
          "type": "address"
        },
        {
          "indexed": false,
          "internalType": "uint256",
          "name": "amount",
          "type": "uint256"
        }
      ],
      "name": "Staked",
      "type": "event"
    },
    {
      "anonymous": false,
      "inputs": [
        {
          "indexed": true,
          "internalType": "address",
          "name": "user",
          "type": "address"
        },
        {
          "indexed": false,
          "internalType": "uint256",
          "name": "amount",
          "type": "uint256"
        }
      ],
      "name": "Withdrawn",
      "type": "event"
    },
    {
      "constant": true,
      "inputs": [],
      "name": "CollectorAddress",
      "outputs": [
        {
          "internalType": "address",
          "name": "",
          "type": "address"
        }
      ],
      "payable": false,
      "stateMutability": "view",
      "type": "function"
    },
    {
      "constant": true,
      "inputs": [
        {
          "internalType": "address",
          "name": "account",
          "type": "address"
        }
      ],
      "name": "balanceOf",
      "outputs": [
        {
          "internalType": "uint256",
          "name": "",
          "type": "uint256"
        }
      ],
      "payable": false,
      "stateMutability": "view",
      "type": "function"
    },
    {
      "constant": true,
      "inputs": [],
      "name": "collectionAddress",
      "outputs": [
        {
          "internalType": "address payable",
          "name": "",
          "type": "address"
        }
      ],
      "payable": false,
      "stateMutability": "view",
      "type": "function"
    },
    {
      "constant": true,
      "inputs": [
        {
          "internalType": "address",
          "name": "account",
          "type": "address"
        }
      ],
      "name": "earned",
      "outputs": [
        {
          "internalType": "uint256",
          "name": "",
          "type": "uint256"
        }
      ],
      "payable": false,
      "stateMutability": "view",
      "type": "function"
    },
    {
      "constant": false,
      "inputs": [],
      "name": "exit",
      "outputs": [],
      "payable": false,
      "stateMutability": "nonpayable",
      "type": "function"
    },
    {
      "constant": false,
      "inputs": [],
      "name": "getReward",
      "outputs": [],
      "payable": false,
      "stateMutability": "nonpayable",
      "type": "function"
    },
    {
      "constant": true,
      "inputs": [],
      "name": "getRewardForDuration",
      "outputs": [
        {
          "internalType": "uint256",
          "name": "",
          "type": "uint256"
        }
      ],
      "payable": false,
      "stateMutability": "view",
      "type": "function"
    },
    {
      "constant": true,
      "inputs": [],
      "name": "lastTimeRewardApplicable",
      "outputs": [
        {
          "internalType": "uint256",
          "name": "",
          "type": "uint256"
        }
      ],
      "payable": false,
      "stateMutability": "view",
      "type": "function"
    },
    {
      "constant": true,
      "inputs": [],
      "name": "lastUpdateTime",
      "outputs": [
        {
          "internalType": "uint256",
          "name": "",
          "type": "uint256"
        }
      ],
      "payable": false,
      "stateMutability": "view",
      "type": "function"
    },
    {
      "constant": false,
      "inputs": [
        {
          "internalType": "uint256",
          "name": "reward",
          "type": "uint256"
        }
      ],
      "name": "notifyRewardAmount",
      "outputs": [],
      "payable": false,
      "stateMutability": "nonpayable",
      "type": "function"
    },
    {
      "constant": true,
      "inputs": [],
      "name": "periodFinish",
      "outputs": [
        {
          "internalType": "uint256",
          "name": "",
          "type": "uint256"
        }
      ],
      "payable": false,
      "stateMutability": "view",
      "type": "function"
    },
    {
      "constant": true,
      "inputs": [],
      "name": "rewardPerToken",
      "outputs": [
        {
          "internalType": "uint256",
          "name": "",
          "type": "uint256"
        }
      ],
      "payable": false,
      "stateMutability": "view",
      "type": "function"
    },
    {
      "constant": true,
      "inputs": [],
      "name": "rewardPerTokenStored",
      "outputs": [
        {
          "internalType": "uint256",
          "name": "",
          "type": "uint256"
        }
      ],
      "payable": false,
      "stateMutability": "view",
      "type": "function"
    },
    {
      "constant": true,
      "inputs": [],
      "name": "rewardRate",
      "outputs": [
        {
          "internalType": "uint256",
          "name": "",
          "type": "uint256"
        }
      ],
      "payable": false,
      "stateMutability": "view",
      "type": "function"
    },
    {
      "constant": true,
      "inputs": [
        {
          "internalType": "address",
          "name": "",
          "type": "address"
        }
      ],
      "name": "rewards",
      "outputs": [
        {
          "internalType": "uint256",
          "name": "",
          "type": "uint256"
        }
      ],
      "payable": false,
      "stateMutability": "view",
      "type": "function"
    },
    {
      "constant": true,
      "inputs": [],
      "name": "rewardsDistribution",
      "outputs": [
        {
          "internalType": "address",
          "name": "",
          "type": "address"
        }
      ],
      "payable": false,
      "stateMutability": "view",
      "type": "function"
    },
    {
      "constant": true,
      "inputs": [],
      "name": "rewardsDuration",
      "outputs": [
        {
          "internalType": "uint256",
          "name": "",
          "type": "uint256"
        }
      ],
      "payable": false,
      "stateMutability": "view",
      "type": "function"
    },
    {
      "constant": true,
      "inputs": [],
      "name": "rewardsToken",
      "outputs": [
        {
          "internalType": "contract IERC20",
          "name": "",
          "type": "address"
        }
      ],
      "payable": false,
      "stateMutability": "view",
      "type": "function"
    },
    {
      "constant": false,
      "inputs": [
        {
          "internalType": "uint256",
          "name": "amount",
          "type": "uint256"
        }
      ],
      "name": "stake",
      "outputs": [],
      "payable": true,
      "stateMutability": "payable",
      "type": "function"
    },
    {
      "constant": false,
      "inputs": [
        {
          "internalType": "uint256",
          "name": "amount",
          "type": "uint256"
        },
        {
          "internalType": "uint256",
          "name": "deadline",
          "type": "uint256"
        },
        {
          "internalType": "uint8",
          "name": "v",
          "type": "uint8"
        },
        {
          "internalType": "bytes32",
          "name": "r",
          "type": "bytes32"
        },
        {
          "internalType": "bytes32",
          "name": "s",
          "type": "bytes32"
        }
      ],
      "name": "stakeWithPermit",
      "outputs": [],
      "payable": true,
      "stateMutability": "payable",
      "type": "function"
    },
    {
      "constant": true,
      "inputs": [],
      "name": "stakingToken",
      "outputs": [
        {
          "internalType": "contract IERC20",
          "name": "",
          "type": "address"
        }
      ],
      "payable": false,
      "stateMutability": "view",
      "type": "function"
    },
    {
      "constant": true,
      "inputs": [],
      "name": "totalSupply",
      "outputs": [
        {
          "internalType": "uint256",
          "name": "",
          "type": "uint256"
        }
      ],
      "payable": false,
      "stateMutability": "view",
      "type": "function"
    },
    {
      "constant": false,
      "inputs": [
        {
          "internalType": "uint256",
          "name": "newRate",
          "type": "uint256"
        }
      ],
      "name": "updateRewardAmount",
      "outputs": [],
      "payable": false,
      "stateMutability": "nonpayable",
      "type": "function"
    },
    {
      "constant": true,
      "inputs": [
        {
          "internalType": "address",
          "name": "",
          "type": "address"
        }
      ],
      "name": "userRewardPerTokenPaid",
      "outputs": [
        {
          "internalType": "uint256",
          "name": "",
          "type": "uint256"
        }
      ],
      "payable": false,
      "stateMutability": "view",
      "type": "function"
    },
    {
      "constant": false,
      "inputs": [
        {
          "internalType": "uint256",
          "name": "amount",
          "type": "uint256"
        }
      ],
      "name": "withdraw",
      "outputs": [],
      "payable": false,
      "stateMutability": "nonpayable",
      "type": "function"
    }
  ],
  "evm": {
    "bytecode": {
      "linkReferences": {},
      "object": "608060405260006004556000600555624f1a0060065534801561002157600080fd5b506040516116e63803806116e68339818101604052608081101561004457600080fd5b5080516020820151604083015160609093015160018055600280546001600160a01b03199081166001600160a01b039485161790915560038054821695841695909517909455600080548516938316939093178355600980549094169116179091556116309081906100b690396000f3fe6080604052600436106101655760003560e01c806372f702f3116100d1578063cd3daf9d1161008a578063df136d6511610064578063df136d6514610412578063e9fad8ee14610427578063ebe2b12b1461043c578063ecd9ba821461045157610165565b8063cd3daf9d146103d3578063d1af0c7d146103e8578063daa5ee71146103fd57610165565b806372f702f31461032f5780637b0a47ee1461034457806380faa57d146103595780638b8763471461036e578063a694fc3a146103a1578063c8f33c91146103be57610165565b8063386a952511610123578063386a9525146102625780633c6b16ab146102775780633d18b912146102a15780633fc6df6e146102b65780636aa00371146102e757806370a08231146102fc57610165565b80628cc2621461016a5780630700037d146101af57806315c2ba14146101e257806318160ddd1461020e5780631c1f78eb146102235780632e1a7d4d14610238575b600080fd5b34801561017657600080fd5b5061019d6004803603602081101561018d57600080fd5b50356001600160a01b0316610489565b60408051918252519081900360200190f35b3480156101bb57600080fd5b5061019d600480360360208110156101d257600080fd5b50356001600160a01b0316610521565b3480156101ee57600080fd5b5061020c6004803603602081101561020557600080fd5b5035610533565b005b34801561021a57600080fd5b5061019d6106e9565b34801561022f57600080fd5b5061019d6106f0565b34801561024457600080fd5b5061020c6004803603602081101561025b57600080fd5b5035610710565b34801561026e57600080fd5b5061019d61089f565b34801561028357600080fd5b5061020c6004803603602081101561029a57600080fd5b50356108a5565b3480156102ad57600080fd5b5061020c610a5b565b3480156102c257600080fd5b506102cb610b7f565b604080516001600160a01b039092168252519081900360200190f35b3480156102f357600080fd5b506102cb610b8e565b34801561030857600080fd5b5061019d6004803603602081101561031f57600080fd5b50356001600160a01b0316610b9d565b34801561033b57600080fd5b506102cb610bb8565b34801561035057600080fd5b5061019d610bc7565b34801561036557600080fd5b5061019d610bcd565b34801561037a57600080fd5b5061019d6004803603602081101561039157600080fd5b50356001600160a01b0316610bdc565b61020c600480360360208110156103b757600080fd5b5035610bee565b3480156103ca57600080fd5b5061019d610e03565b3480156103df57600080fd5b5061019d610e09565b3480156103f457600080fd5b506102cb610e65565b34801561040957600080fd5b506102cb610e74565b34801561041e57600080fd5b5061019d610e83565b34801561043357600080fd5b5061020c610e89565b34801561044857600080fd5b5061019d610eac565b61020c600480360360a081101561046757600080fd5b5080359060208101359060ff6040820135169060608101359060800135610eb2565b6001600160a01b0381166000908152600b6020908152604080832054600a909252822054829161051a9161050e90670de0b6b3a764000090610502906104dd906104d1610e09565b9063ffffffff61115c16565b6001600160a01b0389166000908152600d60205260409020549063ffffffff6111be16565b9063ffffffff61121716565b9063ffffffff61128116565b9392505050565b600b6020526000908152604090205481565b6000546001600160a01b0316331461057c5760405162461bcd60e51b815260040180806020018281038252602a8152602001806115a8602a913960400191505060405180910390fd5b6000610586610e09565b600855610591610bcd565b6007556001600160a01b038116156105d8576105ac81610489565b6001600160a01b0382166000908152600b6020908152604080832093909355600854600a909152919020555b6004544210610648576006546105f590839063ffffffff61121716565b600555426007819055600654610611919063ffffffff61128116565b6004556040805183815290517fcb94909754d27c309adf4167150f1f7aa04de40b6a0e6bb98b2ae80a2bf438f69181900360200190a15b60045460009061065e904263ffffffff61115c16565b90506000610677600554836111be90919063ffffffff16565b60065490915061069190610502868463ffffffff61128116565b6005554260078190556006546106ad919063ffffffff61128116565b6004556040805185815290517fcb94909754d27c309adf4167150f1f7aa04de40b6a0e6bb98b2ae80a2bf438f69181900360200190a150505050565b600c545b90565b60008061070a6006546005546111be90919063ffffffff16565b91505090565b6001805481019081905533610723610e09565b60085561072e610bcd565b6007556001600160a01b038116156107755761074981610489565b6001600160a01b0382166000908152600b6020908152604080832093909355600854600a909152919020555b600083116107be576040805162461bcd60e51b8152602060048201526011602482015270043616e6e6f74207769746864726177203607c1b604482015290519081900360640190fd5b600c546107d1908463ffffffff61115c16565b600c55336000908152600d60205260409020546107f4908463ffffffff61115c16565b336000818152600d6020526040902091909155600354610820916001600160a01b0390911690856112db565b60408051848152905133917f7084f5476618d8e60b11ef0d7d3f06914655adb8793e28ff7f018d4c76d505d5919081900360200190a250600154811461089b576040805162461bcd60e51b815260206004820152601f6024820152600080516020611567833981519152604482015290519081900360640190fd5b5050565b60065481565b6000546001600160a01b031633146108ee5760405162461bcd60e51b815260040180806020018281038252602a8152602001806115a8602a913960400191505060405180910390fd5b60006108f8610e09565b600855610903610bcd565b6007556001600160a01b0381161561094a5761091e81610489565b6001600160a01b0382166000908152600b6020908152604080832093909355600854600a909152919020555b60045442106109ba5760065461096790839063ffffffff61121716565b600555426007819055600654610983919063ffffffff61128116565b6004556040805183815290517fde88a922e0d3b88b24e9623efeb464919c6bf9f66857a65e2bfcf2ce87a9433d9181900360200190a15b6004546000906109d0904263ffffffff61115c16565b905060006109e9600554836111be90919063ffffffff16565b600654909150610a0390610502868463ffffffff61128116565b600555426007819055600654610a1f919063ffffffff61128116565b6004556040805185815290517fde88a922e0d3b88b24e9623efeb464919c6bf9f66857a65e2bfcf2ce87a9433d9181900360200190a150505050565b6001805481019081905533610a6e610e09565b600855610a79610bcd565b6007556001600160a01b03811615610ac057610a9481610489565b6001600160a01b0382166000908152600b6020908152604080832093909355600854600a909152919020555b336000908152600b60205260409020548015610b3657336000818152600b6020526040812055600254610aff916001600160a01b0390911690836112db565b60408051828152905133917fe2403640ba68fed3a2f88b7557551d1993f84b99bb10ff833f0cf8db0c5e0486919081900360200190a25b50506001548114610b7c576040805162461bcd60e51b815260206004820152601f6024820152600080516020611567833981519152604482015290519081900360640190fd5b50565b6000546001600160a01b031681565b6009546001600160a01b031681565b6001600160a01b03166000908152600d602052604090205490565b6003546001600160a01b031681565b60055481565b60008061070a42600454611332565b600a6020526000908152604090205481565b6001805481019081905533610c01610e09565b600855610c0c610bcd565b6007556001600160a01b03811615610c5357610c2781610489565b6001600160a01b0382166000908152600b6020908152604080832093909355600854600a909152919020555b67010a741a4627800083610c9f576040805162461bcd60e51b815260206004820152600e60248201526d043616e6e6f74207374616b6520360941b604482015290519081900360640190fd5b600c54610cb2908563ffffffff61128116565b600c55336000908152600d6020526040902054610cd5908563ffffffff61128116565b336000908152600d60205260408082209290925560095491516001600160a01b03909216916108fc84150291849190818181858888f19350505050158015610d21573d6000803e3d6000fd5b50600354610d40906001600160a01b031633308763ffffffff61134816565b60408051858152905133917f9e71bc8eea02a63969f509818f2dafb9254532904319f9dbda79b67bd34a5f3d919081900360200190a2600954604080516001600160a01b0390921682526020820183905280517fb3d3e40d8f7fffb7b4ca23af2605005b744e9c82d438f3c98a7bc597b50593e99281900390910190a15050600154811461089b576040805162461bcd60e51b815260206004820152601f6024820152600080516020611567833981519152604482015290519081900360640190fd5b60075481565b6000600c5460001415610e1f57506008546106ed565b600061070a610e56600c54610502670de0b6b3a7640000610e4a600554610e4a6007546104d1610bcd565b9063ffffffff6111be16565b6008549063ffffffff61128116565b6002546001600160a01b031681565b6009546001600160a01b031690565b60085481565b336000908152600d6020526040902054610ea290610710565b610eaa610a5b565b565b60045481565b6001805481019081905533610ec5610e09565b600855610ed0610bcd565b6007556001600160a01b03811615610f1757610eeb81610489565b6001600160a01b0382166000908152600b6020908152604080832093909355600854600a909152919020555b67010a741a4627800087610f63576040805162461bcd60e51b815260206004820152600e60248201526d043616e6e6f74207374616b6520360941b604482015290519081900360640190fd5b600c54610f76908963ffffffff61128116565b600c55336000908152600d6020526040902054610f99908963ffffffff61128116565b336000818152600d602052604080822093909355600354835163d505accf60e01b81526004810193909352306024840152604483018c9052606483018b905260ff8a16608484015260a4830189905260c4830188905292516001600160a01b039093169263d505accf9260e480820193929182900301818387803b15801561102057600080fd5b505af1158015611034573d6000803e3d6000fd5b50506009546040516001600160a01b03909116925083156108fc02915083906000818181858888f19350505050158015611072573d6000803e3d6000fd5b50600354611091906001600160a01b031633308b63ffffffff61134816565b60408051898152905133917f9e71bc8eea02a63969f509818f2dafb9254532904319f9dbda79b67bd34a5f3d919081900360200190a2600954604080516001600160a01b0390921682526020820183905280517fb3d3e40d8f7fffb7b4ca23af2605005b744e9c82d438f3c98a7bc597b50593e99281900390910190a150506001548114611154576040805162461bcd60e51b815260206004820152601f6024820152600080516020611567833981519152604482015290519081900360640190fd5b505050505050565b6000828211156111b3576040805162461bcd60e51b815260206004820152601e60248201527f536166654d6174683a207375627472616374696f6e206f766572666c6f770000604482015290519081900360640190fd5b508082035b92915050565b6000826111cd575060006111b8565b828202828482816111da57fe5b041461051a5760405162461bcd60e51b81526004018080602001828103825260218152602001806115876021913960400191505060405180910390fd5b600080821161126d576040805162461bcd60e51b815260206004820152601a60248201527f536166654d6174683a206469766973696f6e206279207a65726f000000000000604482015290519081900360640190fd5b600082848161127857fe5b04949350505050565b60008282018381101561051a576040805162461bcd60e51b815260206004820152601b60248201527f536166654d6174683a206164646974696f6e206f766572666c6f770000000000604482015290519081900360640190fd5b604080516001600160a01b038416602482015260448082018490528251808303909101815260649091019091526020810180516001600160e01b031663a9059cbb60e01b17905261132d9084906113a8565b505050565b6000818310611341578161051a565b5090919050565b604080516001600160a01b0385811660248301528416604482015260648082018490528251808303909101815260849091019091526020810180516001600160e01b03166323b872dd60e01b1790526113a29085906113a8565b50505050565b6113ba826001600160a01b0316611560565b61140b576040805162461bcd60e51b815260206004820152601f60248201527f5361666545524332303a2063616c6c20746f206e6f6e2d636f6e747261637400604482015290519081900360640190fd5b60006060836001600160a01b0316836040518082805190602001908083835b602083106114495780518252601f19909201916020918201910161142a565b6001836020036101000a0380198251168184511680821785525050505050509050019150506000604051808303816000865af19150503d80600081146114ab576040519150601f19603f3d011682016040523d82523d6000602084013e6114b0565b606091505b509150915081611507576040805162461bcd60e51b815260206004820181905260248201527f5361666545524332303a206c6f772d6c6576656c2063616c6c206661696c6564604482015290519081900360640190fd5b8051156113a25780806020019051602081101561152357600080fd5b50516113a25760405162461bcd60e51b815260040180806020018281038252602a8152602001806115d2602a913960400191505060405180910390fd5b3b15159056fe5265656e7472616e637947756172643a207265656e7472616e742063616c6c00536166654d6174683a206d756c7469706c69636174696f6e206f766572666c6f7743616c6c6572206973206e6f742052657761726473446973747269627574696f6e20636f6e74726163745361666545524332303a204552433230206f7065726174696f6e20646964206e6f742073756363656564a265627a7a72315820c2d53e506910f8ed6012f7e7079d20f6c2ebeb532c954c4fd82084419e58557e64736f6c63430005110032",
      "opcodes": "PUSH1 0x80 PUSH1 0x40 MSTORE PUSH1 0x0 PUSH1 0x4 SSTORE PUSH1 0x0 PUSH1 0x5 SSTORE PUSH3 0x4F1A00 PUSH1 0x6 SSTORE CALLVALUE DUP1 ISZERO PUSH2 0x21 JUMPI PUSH1 0x0 DUP1 REVERT JUMPDEST POP PUSH1 0x40 MLOAD PUSH2 0x16E6 CODESIZE SUB DUP1 PUSH2 0x16E6 DUP4 CODECOPY DUP2 DUP2 ADD PUSH1 0x40 MSTORE PUSH1 0x80 DUP2 LT ISZERO PUSH2 0x44 JUMPI PUSH1 0x0 DUP1 REVERT JUMPDEST POP DUP1 MLOAD PUSH1 0x20 DUP3 ADD MLOAD PUSH1 0x40 DUP4 ADD MLOAD PUSH1 0x60 SWAP1 SWAP4 ADD MLOAD PUSH1 0x1 DUP1 SSTORE PUSH1 0x2 DUP1 SLOAD PUSH1 0x1 PUSH1 0x1 PUSH1 0xA0 SHL SUB NOT SWAP1 DUP2 AND PUSH1 0x1 PUSH1 0x1 PUSH1 0xA0 SHL SUB SWAP5 DUP6 AND OR SWAP1 SWAP2 SSTORE PUSH1 0x3 DUP1 SLOAD DUP3 AND SWAP6 DUP5 AND SWAP6 SWAP1 SWAP6 OR SWAP1 SWAP5 SSTORE PUSH1 0x0 DUP1 SLOAD DUP6 AND SWAP4 DUP4 AND SWAP4 SWAP1 SWAP4 OR DUP4 SSTORE PUSH1 0x9 DUP1 SLOAD SWAP1 SWAP5 AND SWAP2 AND OR SWAP1 SWAP2 SSTORE PUSH2 0x1630 SWAP1 DUP2 SWAP1 PUSH2 0xB6 SWAP1 CODECOPY PUSH1 0x0 RETURN INVALID PUSH1 0x80 PUSH1 0x40 MSTORE PUSH1 0x4 CALLDATASIZE LT PUSH2 0x165 JUMPI PUSH1 0x0 CALLDATALOAD PUSH1 0xE0 SHR DUP1 PUSH4 0x72F702F3 GT PUSH2 0xD1 JUMPI DUP1 PUSH4 0xCD3DAF9D GT PUSH2 0x8A JUMPI DUP1 PUSH4 0xDF136D65 GT PUSH2 0x64 JUMPI DUP1 PUSH4 0xDF136D65 EQ PUSH2 0x412 JUMPI DUP1 PUSH4 0xE9FAD8EE EQ PUSH2 0x427 JUMPI DUP1 PUSH4 0xEBE2B12B EQ PUSH2 0x43C JUMPI DUP1 PUSH4 0xECD9BA82 EQ PUSH2 0x451 JUMPI PUSH2 0x165 JUMP JUMPDEST DUP1 PUSH4 0xCD3DAF9D EQ PUSH2 0x3D3 JUMPI DUP1 PUSH4 0xD1AF0C7D EQ PUSH2 0x3E8 JUMPI DUP1 PUSH4 0xDAA5EE71 EQ PUSH2 0x3FD JUMPI PUSH2 0x165 JUMP JUMPDEST DUP1 PUSH4 0x72F702F3 EQ PUSH2 0x32F JUMPI DUP1 PUSH4 0x7B0A47EE EQ PUSH2 0x344 JUMPI DUP1 PUSH4 0x80FAA57D EQ PUSH2 0x359 JUMPI DUP1 PUSH4 0x8B876347 EQ PUSH2 0x36E JUMPI DUP1 PUSH4 0xA694FC3A EQ PUSH2 0x3A1 JUMPI DUP1 PUSH4 0xC8F33C91 EQ PUSH2 0x3BE JUMPI PUSH2 0x165 JUMP JUMPDEST DUP1 PUSH4 0x386A9525 GT PUSH2 0x123 JUMPI DUP1 PUSH4 0x386A9525 EQ PUSH2 0x262 JUMPI DUP1 PUSH4 0x3C6B16AB EQ PUSH2 0x277 JUMPI DUP1 PUSH4 0x3D18B912 EQ PUSH2 0x2A1 JUMPI DUP1 PUSH4 0x3FC6DF6E EQ PUSH2 0x2B6 JUMPI DUP1 PUSH4 0x6AA00371 EQ PUSH2 0x2E7 JUMPI DUP1 PUSH4 0x70A08231 EQ PUSH2 0x2FC JUMPI PUSH2 0x165 JUMP JUMPDEST DUP1 PUSH3 0x8CC262 EQ PUSH2 0x16A JUMPI DUP1 PUSH4 0x700037D EQ PUSH2 0x1AF JUMPI DUP1 PUSH4 0x15C2BA14 EQ PUSH2 0x1E2 JUMPI DUP1 PUSH4 0x18160DDD EQ PUSH2 0x20E JUMPI DUP1 PUSH4 0x1C1F78EB EQ PUSH2 0x223 JUMPI DUP1 PUSH4 0x2E1A7D4D EQ PUSH2 0x238 JUMPI JUMPDEST PUSH1 0x0 DUP1 REVERT JUMPDEST CALLVALUE DUP1 ISZERO PUSH2 0x176 JUMPI PUSH1 0x0 DUP1 REVERT JUMPDEST POP PUSH2 0x19D PUSH1 0x4 DUP1 CALLDATASIZE SUB PUSH1 0x20 DUP2 LT ISZERO PUSH2 0x18D JUMPI PUSH1 0x0 DUP1 REVERT JUMPDEST POP CALLDATALOAD PUSH1 0x1 PUSH1 0x1 PUSH1 0xA0 SHL SUB AND PUSH2 0x489 JUMP JUMPDEST PUSH1 0x40 DUP1 MLOAD SWAP2 DUP3 MSTORE MLOAD SWAP1 DUP2 SWAP1 SUB PUSH1 0x20 ADD SWAP1 RETURN JUMPDEST CALLVALUE DUP1 ISZERO PUSH2 0x1BB JUMPI PUSH1 0x0 DUP1 REVERT JUMPDEST POP PUSH2 0x19D PUSH1 0x4 DUP1 CALLDATASIZE SUB PUSH1 0x20 DUP2 LT ISZERO PUSH2 0x1D2 JUMPI PUSH1 0x0 DUP1 REVERT JUMPDEST POP CALLDATALOAD PUSH1 0x1 PUSH1 0x1 PUSH1 0xA0 SHL SUB AND PUSH2 0x521 JUMP JUMPDEST CALLVALUE DUP1 ISZERO PUSH2 0x1EE JUMPI PUSH1 0x0 DUP1 REVERT JUMPDEST POP PUSH2 0x20C PUSH1 0x4 DUP1 CALLDATASIZE SUB PUSH1 0x20 DUP2 LT ISZERO PUSH2 0x205 JUMPI PUSH1 0x0 DUP1 REVERT JUMPDEST POP CALLDATALOAD PUSH2 0x533 JUMP JUMPDEST STOP JUMPDEST CALLVALUE DUP1 ISZERO PUSH2 0x21A JUMPI PUSH1 0x0 DUP1 REVERT JUMPDEST POP PUSH2 0x19D PUSH2 0x6E9 JUMP JUMPDEST CALLVALUE DUP1 ISZERO PUSH2 0x22F JUMPI PUSH1 0x0 DUP1 REVERT JUMPDEST POP PUSH2 0x19D PUSH2 0x6F0 JUMP JUMPDEST CALLVALUE DUP1 ISZERO PUSH2 0x244 JUMPI PUSH1 0x0 DUP1 REVERT JUMPDEST POP PUSH2 0x20C PUSH1 0x4 DUP1 CALLDATASIZE SUB PUSH1 0x20 DUP2 LT ISZERO PUSH2 0x25B JUMPI PUSH1 0x0 DUP1 REVERT JUMPDEST POP CALLDATALOAD PUSH2 0x710 JUMP JUMPDEST CALLVALUE DUP1 ISZERO PUSH2 0x26E JUMPI PUSH1 0x0 DUP1 REVERT JUMPDEST POP PUSH2 0x19D PUSH2 0x89F JUMP JUMPDEST CALLVALUE DUP1 ISZERO PUSH2 0x283 JUMPI PUSH1 0x0 DUP1 REVERT JUMPDEST POP PUSH2 0x20C PUSH1 0x4 DUP1 CALLDATASIZE SUB PUSH1 0x20 DUP2 LT ISZERO PUSH2 0x29A JUMPI PUSH1 0x0 DUP1 REVERT JUMPDEST POP CALLDATALOAD PUSH2 0x8A5 JUMP JUMPDEST CALLVALUE DUP1 ISZERO PUSH2 0x2AD JUMPI PUSH1 0x0 DUP1 REVERT JUMPDEST POP PUSH2 0x20C PUSH2 0xA5B JUMP JUMPDEST CALLVALUE DUP1 ISZERO PUSH2 0x2C2 JUMPI PUSH1 0x0 DUP1 REVERT JUMPDEST POP PUSH2 0x2CB PUSH2 0xB7F JUMP JUMPDEST PUSH1 0x40 DUP1 MLOAD PUSH1 0x1 PUSH1 0x1 PUSH1 0xA0 SHL SUB SWAP1 SWAP3 AND DUP3 MSTORE MLOAD SWAP1 DUP2 SWAP1 SUB PUSH1 0x20 ADD SWAP1 RETURN JUMPDEST CALLVALUE DUP1 ISZERO PUSH2 0x2F3 JUMPI PUSH1 0x0 DUP1 REVERT JUMPDEST POP PUSH2 0x2CB PUSH2 0xB8E JUMP JUMPDEST CALLVALUE DUP1 ISZERO PUSH2 0x308 JUMPI PUSH1 0x0 DUP1 REVERT JUMPDEST POP PUSH2 0x19D PUSH1 0x4 DUP1 CALLDATASIZE SUB PUSH1 0x20 DUP2 LT ISZERO PUSH2 0x31F JUMPI PUSH1 0x0 DUP1 REVERT JUMPDEST POP CALLDATALOAD PUSH1 0x1 PUSH1 0x1 PUSH1 0xA0 SHL SUB AND PUSH2 0xB9D JUMP JUMPDEST CALLVALUE DUP1 ISZERO PUSH2 0x33B JUMPI PUSH1 0x0 DUP1 REVERT JUMPDEST POP PUSH2 0x2CB PUSH2 0xBB8 JUMP JUMPDEST CALLVALUE DUP1 ISZERO PUSH2 0x350 JUMPI PUSH1 0x0 DUP1 REVERT JUMPDEST POP PUSH2 0x19D PUSH2 0xBC7 JUMP JUMPDEST CALLVALUE DUP1 ISZERO PUSH2 0x365 JUMPI PUSH1 0x0 DUP1 REVERT JUMPDEST POP PUSH2 0x19D PUSH2 0xBCD JUMP JUMPDEST CALLVALUE DUP1 ISZERO PUSH2 0x37A JUMPI PUSH1 0x0 DUP1 REVERT JUMPDEST POP PUSH2 0x19D PUSH1 0x4 DUP1 CALLDATASIZE SUB PUSH1 0x20 DUP2 LT ISZERO PUSH2 0x391 JUMPI PUSH1 0x0 DUP1 REVERT JUMPDEST POP CALLDATALOAD PUSH1 0x1 PUSH1 0x1 PUSH1 0xA0 SHL SUB AND PUSH2 0xBDC JUMP JUMPDEST PUSH2 0x20C PUSH1 0x4 DUP1 CALLDATASIZE SUB PUSH1 0x20 DUP2 LT ISZERO PUSH2 0x3B7 JUMPI PUSH1 0x0 DUP1 REVERT JUMPDEST POP CALLDATALOAD PUSH2 0xBEE JUMP JUMPDEST CALLVALUE DUP1 ISZERO PUSH2 0x3CA JUMPI PUSH1 0x0 DUP1 REVERT JUMPDEST POP PUSH2 0x19D PUSH2 0xE03 JUMP JUMPDEST CALLVALUE DUP1 ISZERO PUSH2 0x3DF JUMPI PUSH1 0x0 DUP1 REVERT JUMPDEST POP PUSH2 0x19D PUSH2 0xE09 JUMP JUMPDEST CALLVALUE DUP1 ISZERO PUSH2 0x3F4 JUMPI PUSH1 0x0 DUP1 REVERT JUMPDEST POP PUSH2 0x2CB PUSH2 0xE65 JUMP JUMPDEST CALLVALUE DUP1 ISZERO PUSH2 0x409 JUMPI PUSH1 0x0 DUP1 REVERT JUMPDEST POP PUSH2 0x2CB PUSH2 0xE74 JUMP JUMPDEST CALLVALUE DUP1 ISZERO PUSH2 0x41E JUMPI PUSH1 0x0 DUP1 REVERT JUMPDEST POP PUSH2 0x19D PUSH2 0xE83 JUMP JUMPDEST CALLVALUE DUP1 ISZERO PUSH2 0x433 JUMPI PUSH1 0x0 DUP1 REVERT JUMPDEST POP PUSH2 0x20C PUSH2 0xE89 JUMP JUMPDEST CALLVALUE DUP1 ISZERO PUSH2 0x448 JUMPI PUSH1 0x0 DUP1 REVERT JUMPDEST POP PUSH2 0x19D PUSH2 0xEAC JUMP JUMPDEST PUSH2 0x20C PUSH1 0x4 DUP1 CALLDATASIZE SUB PUSH1 0xA0 DUP2 LT ISZERO PUSH2 0x467 JUMPI PUSH1 0x0 DUP1 REVERT JUMPDEST POP DUP1 CALLDATALOAD SWAP1 PUSH1 0x20 DUP2 ADD CALLDATALOAD SWAP1 PUSH1 0xFF PUSH1 0x40 DUP3 ADD CALLDATALOAD AND SWAP1 PUSH1 0x60 DUP2 ADD CALLDATALOAD SWAP1 PUSH1 0x80 ADD CALLDATALOAD PUSH2 0xEB2 JUMP JUMPDEST PUSH1 0x1 PUSH1 0x1 PUSH1 0xA0 SHL SUB DUP2 AND PUSH1 0x0 SWAP1 DUP2 MSTORE PUSH1 0xB PUSH1 0x20 SWAP1 DUP2 MSTORE PUSH1 0x40 DUP1 DUP4 KECCAK256 SLOAD PUSH1 0xA SWAP1 SWAP3 MSTORE DUP3 KECCAK256 SLOAD DUP3 SWAP2 PUSH2 0x51A SWAP2 PUSH2 0x50E SWAP1 PUSH8 0xDE0B6B3A7640000 SWAP1 PUSH2 0x502 SWAP1 PUSH2 0x4DD SWAP1 PUSH2 0x4D1 PUSH2 0xE09 JUMP JUMPDEST SWAP1 PUSH4 0xFFFFFFFF PUSH2 0x115C AND JUMP JUMPDEST PUSH1 0x1 PUSH1 0x1 PUSH1 0xA0 SHL SUB DUP10 AND PUSH1 0x0 SWAP1 DUP2 MSTORE PUSH1 0xD PUSH1 0x20 MSTORE PUSH1 0x40 SWAP1 KECCAK256 SLOAD SWAP1 PUSH4 0xFFFFFFFF PUSH2 0x11BE AND JUMP JUMPDEST SWAP1 PUSH4 0xFFFFFFFF PUSH2 0x1217 AND JUMP JUMPDEST SWAP1 PUSH4 0xFFFFFFFF PUSH2 0x1281 AND JUMP JUMPDEST SWAP4 SWAP3 POP POP POP JUMP JUMPDEST PUSH1 0xB PUSH1 0x20 MSTORE PUSH1 0x0 SWAP1 DUP2 MSTORE PUSH1 0x40 SWAP1 KECCAK256 SLOAD DUP2 JUMP JUMPDEST PUSH1 0x0 SLOAD PUSH1 0x1 PUSH1 0x1 PUSH1 0xA0 SHL SUB AND CALLER EQ PUSH2 0x57C JUMPI PUSH1 0x40 MLOAD PUSH3 0x461BCD PUSH1 0xE5 SHL DUP2 MSTORE PUSH1 0x4 ADD DUP1 DUP1 PUSH1 0x20 ADD DUP3 DUP2 SUB DUP3 MSTORE PUSH1 0x2A DUP2 MSTORE PUSH1 0x20 ADD DUP1 PUSH2 0x15A8 PUSH1 0x2A SWAP2 CODECOPY PUSH1 0x40 ADD SWAP2 POP POP PUSH1 0x40 MLOAD DUP1 SWAP2 SUB SWAP1 REVERT JUMPDEST PUSH1 0x0 PUSH2 0x586 PUSH2 0xE09 JUMP JUMPDEST PUSH1 0x8 SSTORE PUSH2 0x591 PUSH2 0xBCD JUMP JUMPDEST PUSH1 0x7 SSTORE PUSH1 0x1 PUSH1 0x1 PUSH1 0xA0 SHL SUB DUP2 AND ISZERO PUSH2 0x5D8 JUMPI PUSH2 0x5AC DUP2 PUSH2 0x489 JUMP JUMPDEST PUSH1 0x1 PUSH1 0x1 PUSH1 0xA0 SHL SUB DUP3 AND PUSH1 0x0 SWAP1 DUP2 MSTORE PUSH1 0xB PUSH1 0x20 SWAP1 DUP2 MSTORE PUSH1 0x40 DUP1 DUP4 KECCAK256 SWAP4 SWAP1 SWAP4 SSTORE PUSH1 0x8 SLOAD PUSH1 0xA SWAP1 SWAP2 MSTORE SWAP2 SWAP1 KECCAK256 SSTORE JUMPDEST PUSH1 0x4 SLOAD TIMESTAMP LT PUSH2 0x648 JUMPI PUSH1 0x6 SLOAD PUSH2 0x5F5 SWAP1 DUP4 SWAP1 PUSH4 0xFFFFFFFF PUSH2 0x1217 AND JUMP JUMPDEST PUSH1 0x5 SSTORE TIMESTAMP PUSH1 0x7 DUP2 SWAP1 SSTORE PUSH1 0x6 SLOAD PUSH2 0x611 SWAP2 SWAP1 PUSH4 0xFFFFFFFF PUSH2 0x1281 AND JUMP JUMPDEST PUSH1 0x4 SSTORE PUSH1 0x40 DUP1 MLOAD DUP4 DUP2 MSTORE SWAP1 MLOAD PUSH32 0xCB94909754D27C309ADF4167150F1F7AA04DE40B6A0E6BB98B2AE80A2BF438F6 SWAP2 DUP2 SWAP1 SUB PUSH1 0x20 ADD SWAP1 LOG1 JUMPDEST PUSH1 0x4 SLOAD PUSH1 0x0 SWAP1 PUSH2 0x65E SWAP1 TIMESTAMP PUSH4 0xFFFFFFFF PUSH2 0x115C AND JUMP JUMPDEST SWAP1 POP PUSH1 0x0 PUSH2 0x677 PUSH1 0x5 SLOAD DUP4 PUSH2 0x11BE SWAP1 SWAP2 SWAP1 PUSH4 0xFFFFFFFF AND JUMP JUMPDEST PUSH1 0x6 SLOAD SWAP1 SWAP2 POP PUSH2 0x691 SWAP1 PUSH2 0x502 DUP7 DUP5 PUSH4 0xFFFFFFFF PUSH2 0x1281 AND JUMP JUMPDEST PUSH1 0x5 SSTORE TIMESTAMP PUSH1 0x7 DUP2 SWAP1 SSTORE PUSH1 0x6 SLOAD PUSH2 0x6AD SWAP2 SWAP1 PUSH4 0xFFFFFFFF PUSH2 0x1281 AND JUMP JUMPDEST PUSH1 0x4 SSTORE PUSH1 0x40 DUP1 MLOAD DUP6 DUP2 MSTORE SWAP1 MLOAD PUSH32 0xCB94909754D27C309ADF4167150F1F7AA04DE40B6A0E6BB98B2AE80A2BF438F6 SWAP2 DUP2 SWAP1 SUB PUSH1 0x20 ADD SWAP1 LOG1 POP POP POP POP JUMP JUMPDEST PUSH1 0xC SLOAD JUMPDEST SWAP1 JUMP JUMPDEST PUSH1 0x0 DUP1 PUSH2 0x70A PUSH1 0x6 SLOAD PUSH1 0x5 SLOAD PUSH2 0x11BE SWAP1 SWAP2 SWAP1 PUSH4 0xFFFFFFFF AND JUMP JUMPDEST SWAP2 POP POP SWAP1 JUMP JUMPDEST PUSH1 0x1 DUP1 SLOAD DUP2 ADD SWAP1 DUP2 SWAP1 SSTORE CALLER PUSH2 0x723 PUSH2 0xE09 JUMP JUMPDEST PUSH1 0x8 SSTORE PUSH2 0x72E PUSH2 0xBCD JUMP JUMPDEST PUSH1 0x7 SSTORE PUSH1 0x1 PUSH1 0x1 PUSH1 0xA0 SHL SUB DUP2 AND ISZERO PUSH2 0x775 JUMPI PUSH2 0x749 DUP2 PUSH2 0x489 JUMP JUMPDEST PUSH1 0x1 PUSH1 0x1 PUSH1 0xA0 SHL SUB DUP3 AND PUSH1 0x0 SWAP1 DUP2 MSTORE PUSH1 0xB PUSH1 0x20 SWAP1 DUP2 MSTORE PUSH1 0x40 DUP1 DUP4 KECCAK256 SWAP4 SWAP1 SWAP4 SSTORE PUSH1 0x8 SLOAD PUSH1 0xA SWAP1 SWAP2 MSTORE SWAP2 SWAP1 KECCAK256 SSTORE JUMPDEST PUSH1 0x0 DUP4 GT PUSH2 0x7BE JUMPI PUSH1 0x40 DUP1 MLOAD PUSH3 0x461BCD PUSH1 0xE5 SHL DUP2 MSTORE PUSH1 0x20 PUSH1 0x4 DUP3 ADD MSTORE PUSH1 0x11 PUSH1 0x24 DUP3 ADD MSTORE PUSH17 0x43616E6E6F74207769746864726177203 PUSH1 0x7C SHL PUSH1 0x44 DUP3 ADD MSTORE SWAP1 MLOAD SWAP1 DUP2 SWAP1 SUB PUSH1 0x64 ADD SWAP1 REVERT JUMPDEST PUSH1 0xC SLOAD PUSH2 0x7D1 SWAP1 DUP5 PUSH4 0xFFFFFFFF PUSH2 0x115C AND JUMP JUMPDEST PUSH1 0xC SSTORE CALLER PUSH1 0x0 SWAP1 DUP2 MSTORE PUSH1 0xD PUSH1 0x20 MSTORE PUSH1 0x40 SWAP1 KECCAK256 SLOAD PUSH2 0x7F4 SWAP1 DUP5 PUSH4 0xFFFFFFFF PUSH2 0x115C AND JUMP JUMPDEST CALLER PUSH1 0x0 DUP2 DUP2 MSTORE PUSH1 0xD PUSH1 0x20 MSTORE PUSH1 0x40 SWAP1 KECCAK256 SWAP2 SWAP1 SWAP2 SSTORE PUSH1 0x3 SLOAD PUSH2 0x820 SWAP2 PUSH1 0x1 PUSH1 0x1 PUSH1 0xA0 SHL SUB SWAP1 SWAP2 AND SWAP1 DUP6 PUSH2 0x12DB JUMP JUMPDEST PUSH1 0x40 DUP1 MLOAD DUP5 DUP2 MSTORE SWAP1 MLOAD CALLER SWAP2 PUSH32 0x7084F5476618D8E60B11EF0D7D3F06914655ADB8793E28FF7F018D4C76D505D5 SWAP2 SWAP1 DUP2 SWAP1 SUB PUSH1 0x20 ADD SWAP1 LOG2 POP PUSH1 0x1 SLOAD DUP2 EQ PUSH2 0x89B JUMPI PUSH1 0x40 DUP1 MLOAD PUSH3 0x461BCD PUSH1 0xE5 SHL DUP2 MSTORE PUSH1 0x20 PUSH1 0x4 DUP3 ADD MSTORE PUSH1 0x1F PUSH1 0x24 DUP3 ADD MSTORE PUSH1 0x0 DUP1 MLOAD PUSH1 0x20 PUSH2 0x1567 DUP4 CODECOPY DUP2 MLOAD SWAP2 MSTORE PUSH1 0x44 DUP3 ADD MSTORE SWAP1 MLOAD SWAP1 DUP2 SWAP1 SUB PUSH1 0x64 ADD SWAP1 REVERT JUMPDEST POP POP JUMP JUMPDEST PUSH1 0x6 SLOAD DUP2 JUMP JUMPDEST PUSH1 0x0 SLOAD PUSH1 0x1 PUSH1 0x1 PUSH1 0xA0 SHL SUB AND CALLER EQ PUSH2 0x8EE JUMPI PUSH1 0x40 MLOAD PUSH3 0x461BCD PUSH1 0xE5 SHL DUP2 MSTORE PUSH1 0x4 ADD DUP1 DUP1 PUSH1 0x20 ADD DUP3 DUP2 SUB DUP3 MSTORE PUSH1 0x2A DUP2 MSTORE PUSH1 0x20 ADD DUP1 PUSH2 0x15A8 PUSH1 0x2A SWAP2 CODECOPY PUSH1 0x40 ADD SWAP2 POP POP PUSH1 0x40 MLOAD DUP1 SWAP2 SUB SWAP1 REVERT JUMPDEST PUSH1 0x0 PUSH2 0x8F8 PUSH2 0xE09 JUMP JUMPDEST PUSH1 0x8 SSTORE PUSH2 0x903 PUSH2 0xBCD JUMP JUMPDEST PUSH1 0x7 SSTORE PUSH1 0x1 PUSH1 0x1 PUSH1 0xA0 SHL SUB DUP2 AND ISZERO PUSH2 0x94A JUMPI PUSH2 0x91E DUP2 PUSH2 0x489 JUMP JUMPDEST PUSH1 0x1 PUSH1 0x1 PUSH1 0xA0 SHL SUB DUP3 AND PUSH1 0x0 SWAP1 DUP2 MSTORE PUSH1 0xB PUSH1 0x20 SWAP1 DUP2 MSTORE PUSH1 0x40 DUP1 DUP4 KECCAK256 SWAP4 SWAP1 SWAP4 SSTORE PUSH1 0x8 SLOAD PUSH1 0xA SWAP1 SWAP2 MSTORE SWAP2 SWAP1 KECCAK256 SSTORE JUMPDEST PUSH1 0x4 SLOAD TIMESTAMP LT PUSH2 0x9BA JUMPI PUSH1 0x6 SLOAD PUSH2 0x967 SWAP1 DUP4 SWAP1 PUSH4 0xFFFFFFFF PUSH2 0x1217 AND JUMP JUMPDEST PUSH1 0x5 SSTORE TIMESTAMP PUSH1 0x7 DUP2 SWAP1 SSTORE PUSH1 0x6 SLOAD PUSH2 0x983 SWAP2 SWAP1 PUSH4 0xFFFFFFFF PUSH2 0x1281 AND JUMP JUMPDEST PUSH1 0x4 SSTORE PUSH1 0x40 DUP1 MLOAD DUP4 DUP2 MSTORE SWAP1 MLOAD PUSH32 0xDE88A922E0D3B88B24E9623EFEB464919C6BF9F66857A65E2BFCF2CE87A9433D SWAP2 DUP2 SWAP1 SUB PUSH1 0x20 ADD SWAP1 LOG1 JUMPDEST PUSH1 0x4 SLOAD PUSH1 0x0 SWAP1 PUSH2 0x9D0 SWAP1 TIMESTAMP PUSH4 0xFFFFFFFF PUSH2 0x115C AND JUMP JUMPDEST SWAP1 POP PUSH1 0x0 PUSH2 0x9E9 PUSH1 0x5 SLOAD DUP4 PUSH2 0x11BE SWAP1 SWAP2 SWAP1 PUSH4 0xFFFFFFFF AND JUMP JUMPDEST PUSH1 0x6 SLOAD SWAP1 SWAP2 POP PUSH2 0xA03 SWAP1 PUSH2 0x502 DUP7 DUP5 PUSH4 0xFFFFFFFF PUSH2 0x1281 AND JUMP JUMPDEST PUSH1 0x5 SSTORE TIMESTAMP PUSH1 0x7 DUP2 SWAP1 SSTORE PUSH1 0x6 SLOAD PUSH2 0xA1F SWAP2 SWAP1 PUSH4 0xFFFFFFFF PUSH2 0x1281 AND JUMP JUMPDEST PUSH1 0x4 SSTORE PUSH1 0x40 DUP1 MLOAD DUP6 DUP2 MSTORE SWAP1 MLOAD PUSH32 0xDE88A922E0D3B88B24E9623EFEB464919C6BF9F66857A65E2BFCF2CE87A9433D SWAP2 DUP2 SWAP1 SUB PUSH1 0x20 ADD SWAP1 LOG1 POP POP POP POP JUMP JUMPDEST PUSH1 0x1 DUP1 SLOAD DUP2 ADD SWAP1 DUP2 SWAP1 SSTORE CALLER PUSH2 0xA6E PUSH2 0xE09 JUMP JUMPDEST PUSH1 0x8 SSTORE PUSH2 0xA79 PUSH2 0xBCD JUMP JUMPDEST PUSH1 0x7 SSTORE PUSH1 0x1 PUSH1 0x1 PUSH1 0xA0 SHL SUB DUP2 AND ISZERO PUSH2 0xAC0 JUMPI PUSH2 0xA94 DUP2 PUSH2 0x489 JUMP JUMPDEST PUSH1 0x1 PUSH1 0x1 PUSH1 0xA0 SHL SUB DUP3 AND PUSH1 0x0 SWAP1 DUP2 MSTORE PUSH1 0xB PUSH1 0x20 SWAP1 DUP2 MSTORE PUSH1 0x40 DUP1 DUP4 KECCAK256 SWAP4 SWAP1 SWAP4 SSTORE PUSH1 0x8 SLOAD PUSH1 0xA SWAP1 SWAP2 MSTORE SWAP2 SWAP1 KECCAK256 SSTORE JUMPDEST CALLER PUSH1 0x0 SWAP1 DUP2 MSTORE PUSH1 0xB PUSH1 0x20 MSTORE PUSH1 0x40 SWAP1 KECCAK256 SLOAD DUP1 ISZERO PUSH2 0xB36 JUMPI CALLER PUSH1 0x0 DUP2 DUP2 MSTORE PUSH1 0xB PUSH1 0x20 MSTORE PUSH1 0x40 DUP2 KECCAK256 SSTORE PUSH1 0x2 SLOAD PUSH2 0xAFF SWAP2 PUSH1 0x1 PUSH1 0x1 PUSH1 0xA0 SHL SUB SWAP1 SWAP2 AND SWAP1 DUP4 PUSH2 0x12DB JUMP JUMPDEST PUSH1 0x40 DUP1 MLOAD DUP3 DUP2 MSTORE SWAP1 MLOAD CALLER SWAP2 PUSH32 0xE2403640BA68FED3A2F88B7557551D1993F84B99BB10FF833F0CF8DB0C5E0486 SWAP2 SWAP1 DUP2 SWAP1 SUB PUSH1 0x20 ADD SWAP1 LOG2 JUMPDEST POP POP PUSH1 0x1 SLOAD DUP2 EQ PUSH2 0xB7C JUMPI PUSH1 0x40 DUP1 MLOAD PUSH3 0x461BCD PUSH1 0xE5 SHL DUP2 MSTORE PUSH1 0x20 PUSH1 0x4 DUP3 ADD MSTORE PUSH1 0x1F PUSH1 0x24 DUP3 ADD MSTORE PUSH1 0x0 DUP1 MLOAD PUSH1 0x20 PUSH2 0x1567 DUP4 CODECOPY DUP2 MLOAD SWAP2 MSTORE PUSH1 0x44 DUP3 ADD MSTORE SWAP1 MLOAD SWAP1 DUP2 SWAP1 SUB PUSH1 0x64 ADD SWAP1 REVERT JUMPDEST POP JUMP JUMPDEST PUSH1 0x0 SLOAD PUSH1 0x1 PUSH1 0x1 PUSH1 0xA0 SHL SUB AND DUP2 JUMP JUMPDEST PUSH1 0x9 SLOAD PUSH1 0x1 PUSH1 0x1 PUSH1 0xA0 SHL SUB AND DUP2 JUMP JUMPDEST PUSH1 0x1 PUSH1 0x1 PUSH1 0xA0 SHL SUB AND PUSH1 0x0 SWAP1 DUP2 MSTORE PUSH1 0xD PUSH1 0x20 MSTORE PUSH1 0x40 SWAP1 KECCAK256 SLOAD SWAP1 JUMP JUMPDEST PUSH1 0x3 SLOAD PUSH1 0x1 PUSH1 0x1 PUSH1 0xA0 SHL SUB AND DUP2 JUMP JUMPDEST PUSH1 0x5 SLOAD DUP2 JUMP JUMPDEST PUSH1 0x0 DUP1 PUSH2 0x70A TIMESTAMP PUSH1 0x4 SLOAD PUSH2 0x1332 JUMP JUMPDEST PUSH1 0xA PUSH1 0x20 MSTORE PUSH1 0x0 SWAP1 DUP2 MSTORE PUSH1 0x40 SWAP1 KECCAK256 SLOAD DUP2 JUMP JUMPDEST PUSH1 0x1 DUP1 SLOAD DUP2 ADD SWAP1 DUP2 SWAP1 SSTORE CALLER PUSH2 0xC01 PUSH2 0xE09 JUMP JUMPDEST PUSH1 0x8 SSTORE PUSH2 0xC0C PUSH2 0xBCD JUMP JUMPDEST PUSH1 0x7 SSTORE PUSH1 0x1 PUSH1 0x1 PUSH1 0xA0 SHL SUB DUP2 AND ISZERO PUSH2 0xC53 JUMPI PUSH2 0xC27 DUP2 PUSH2 0x489 JUMP JUMPDEST PUSH1 0x1 PUSH1 0x1 PUSH1 0xA0 SHL SUB DUP3 AND PUSH1 0x0 SWAP1 DUP2 MSTORE PUSH1 0xB PUSH1 0x20 SWAP1 DUP2 MSTORE PUSH1 0x40 DUP1 DUP4 KECCAK256 SWAP4 SWAP1 SWAP4 SSTORE PUSH1 0x8 SLOAD PUSH1 0xA SWAP1 SWAP2 MSTORE SWAP2 SWAP1 KECCAK256 SSTORE JUMPDEST PUSH8 0x10A741A46278000 DUP4 PUSH2 0xC9F JUMPI PUSH1 0x40 DUP1 MLOAD PUSH3 0x461BCD PUSH1 0xE5 SHL DUP2 MSTORE PUSH1 0x20 PUSH1 0x4 DUP3 ADD MSTORE PUSH1 0xE PUSH1 0x24 DUP3 ADD MSTORE PUSH14 0x43616E6E6F74207374616B65203 PUSH1 0x94 SHL PUSH1 0x44 DUP3 ADD MSTORE SWAP1 MLOAD SWAP1 DUP2 SWAP1 SUB PUSH1 0x64 ADD SWAP1 REVERT JUMPDEST PUSH1 0xC SLOAD PUSH2 0xCB2 SWAP1 DUP6 PUSH4 0xFFFFFFFF PUSH2 0x1281 AND JUMP JUMPDEST PUSH1 0xC SSTORE CALLER PUSH1 0x0 SWAP1 DUP2 MSTORE PUSH1 0xD PUSH1 0x20 MSTORE PUSH1 0x40 SWAP1 KECCAK256 SLOAD PUSH2 0xCD5 SWAP1 DUP6 PUSH4 0xFFFFFFFF PUSH2 0x1281 AND JUMP JUMPDEST CALLER PUSH1 0x0 SWAP1 DUP2 MSTORE PUSH1 0xD PUSH1 0x20 MSTORE PUSH1 0x40 DUP1 DUP3 KECCAK256 SWAP3 SWAP1 SWAP3 SSTORE PUSH1 0x9 SLOAD SWAP2 MLOAD PUSH1 0x1 PUSH1 0x1 PUSH1 0xA0 SHL SUB SWAP1 SWAP3 AND SWAP2 PUSH2 0x8FC DUP5 ISZERO MUL SWAP2 DUP5 SWAP2 SWAP1 DUP2 DUP2 DUP2 DUP6 DUP9 DUP9 CALL SWAP4 POP POP POP POP ISZERO DUP1 ISZERO PUSH2 0xD21 JUMPI RETURNDATASIZE PUSH1 0x0 DUP1 RETURNDATACOPY RETURNDATASIZE PUSH1 0x0 REVERT JUMPDEST POP PUSH1 0x3 SLOAD PUSH2 0xD40 SWAP1 PUSH1 0x1 PUSH1 0x1 PUSH1 0xA0 SHL SUB AND CALLER ADDRESS DUP8 PUSH4 0xFFFFFFFF PUSH2 0x1348 AND JUMP JUMPDEST PUSH1 0x40 DUP1 MLOAD DUP6 DUP2 MSTORE SWAP1 MLOAD CALLER SWAP2 PUSH32 0x9E71BC8EEA02A63969F509818F2DAFB9254532904319F9DBDA79B67BD34A5F3D SWAP2 SWAP1 DUP2 SWAP1 SUB PUSH1 0x20 ADD SWAP1 LOG2 PUSH1 0x9 SLOAD PUSH1 0x40 DUP1 MLOAD PUSH1 0x1 PUSH1 0x1 PUSH1 0xA0 SHL SUB SWAP1 SWAP3 AND DUP3 MSTORE PUSH1 0x20 DUP3 ADD DUP4 SWAP1 MSTORE DUP1 MLOAD PUSH32 0xB3D3E40D8F7FFFB7B4CA23AF2605005B744E9C82D438F3C98A7BC597B50593E9 SWAP3 DUP2 SWAP1 SUB SWAP1 SWAP2 ADD SWAP1 LOG1 POP POP PUSH1 0x1 SLOAD DUP2 EQ PUSH2 0x89B JUMPI PUSH1 0x40 DUP1 MLOAD PUSH3 0x461BCD PUSH1 0xE5 SHL DUP2 MSTORE PUSH1 0x20 PUSH1 0x4 DUP3 ADD MSTORE PUSH1 0x1F PUSH1 0x24 DUP3 ADD MSTORE PUSH1 0x0 DUP1 MLOAD PUSH1 0x20 PUSH2 0x1567 DUP4 CODECOPY DUP2 MLOAD SWAP2 MSTORE PUSH1 0x44 DUP3 ADD MSTORE SWAP1 MLOAD SWAP1 DUP2 SWAP1 SUB PUSH1 0x64 ADD SWAP1 REVERT JUMPDEST PUSH1 0x7 SLOAD DUP2 JUMP JUMPDEST PUSH1 0x0 PUSH1 0xC SLOAD PUSH1 0x0 EQ ISZERO PUSH2 0xE1F JUMPI POP PUSH1 0x8 SLOAD PUSH2 0x6ED JUMP JUMPDEST PUSH1 0x0 PUSH2 0x70A PUSH2 0xE56 PUSH1 0xC SLOAD PUSH2 0x502 PUSH8 0xDE0B6B3A7640000 PUSH2 0xE4A PUSH1 0x5 SLOAD PUSH2 0xE4A PUSH1 0x7 SLOAD PUSH2 0x4D1 PUSH2 0xBCD JUMP JUMPDEST SWAP1 PUSH4 0xFFFFFFFF PUSH2 0x11BE AND JUMP JUMPDEST PUSH1 0x8 SLOAD SWAP1 PUSH4 0xFFFFFFFF PUSH2 0x1281 AND JUMP JUMPDEST PUSH1 0x2 SLOAD PUSH1 0x1 PUSH1 0x1 PUSH1 0xA0 SHL SUB AND DUP2 JUMP JUMPDEST PUSH1 0x9 SLOAD PUSH1 0x1 PUSH1 0x1 PUSH1 0xA0 SHL SUB AND SWAP1 JUMP JUMPDEST PUSH1 0x8 SLOAD DUP2 JUMP JUMPDEST CALLER PUSH1 0x0 SWAP1 DUP2 MSTORE PUSH1 0xD PUSH1 0x20 MSTORE PUSH1 0x40 SWAP1 KECCAK256 SLOAD PUSH2 0xEA2 SWAP1 PUSH2 0x710 JUMP JUMPDEST PUSH2 0xEAA PUSH2 0xA5B JUMP JUMPDEST JUMP JUMPDEST PUSH1 0x4 SLOAD DUP2 JUMP JUMPDEST PUSH1 0x1 DUP1 SLOAD DUP2 ADD SWAP1 DUP2 SWAP1 SSTORE CALLER PUSH2 0xEC5 PUSH2 0xE09 JUMP JUMPDEST PUSH1 0x8 SSTORE PUSH2 0xED0 PUSH2 0xBCD JUMP JUMPDEST PUSH1 0x7 SSTORE PUSH1 0x1 PUSH1 0x1 PUSH1 0xA0 SHL SUB DUP2 AND ISZERO PUSH2 0xF17 JUMPI PUSH2 0xEEB DUP2 PUSH2 0x489 JUMP JUMPDEST PUSH1 0x1 PUSH1 0x1 PUSH1 0xA0 SHL SUB DUP3 AND PUSH1 0x0 SWAP1 DUP2 MSTORE PUSH1 0xB PUSH1 0x20 SWAP1 DUP2 MSTORE PUSH1 0x40 DUP1 DUP4 KECCAK256 SWAP4 SWAP1 SWAP4 SSTORE PUSH1 0x8 SLOAD PUSH1 0xA SWAP1 SWAP2 MSTORE SWAP2 SWAP1 KECCAK256 SSTORE JUMPDEST PUSH8 0x10A741A46278000 DUP8 PUSH2 0xF63 JUMPI PUSH1 0x40 DUP1 MLOAD PUSH3 0x461BCD PUSH1 0xE5 SHL DUP2 MSTORE PUSH1 0x20 PUSH1 0x4 DUP3 ADD MSTORE PUSH1 0xE PUSH1 0x24 DUP3 ADD MSTORE PUSH14 0x43616E6E6F74207374616B65203 PUSH1 0x94 SHL PUSH1 0x44 DUP3 ADD MSTORE SWAP1 MLOAD SWAP1 DUP2 SWAP1 SUB PUSH1 0x64 ADD SWAP1 REVERT JUMPDEST PUSH1 0xC SLOAD PUSH2 0xF76 SWAP1 DUP10 PUSH4 0xFFFFFFFF PUSH2 0x1281 AND JUMP JUMPDEST PUSH1 0xC SSTORE CALLER PUSH1 0x0 SWAP1 DUP2 MSTORE PUSH1 0xD PUSH1 0x20 MSTORE PUSH1 0x40 SWAP1 KECCAK256 SLOAD PUSH2 0xF99 SWAP1 DUP10 PUSH4 0xFFFFFFFF PUSH2 0x1281 AND JUMP JUMPDEST CALLER PUSH1 0x0 DUP2 DUP2 MSTORE PUSH1 0xD PUSH1 0x20 MSTORE PUSH1 0x40 DUP1 DUP3 KECCAK256 SWAP4 SWAP1 SWAP4 SSTORE PUSH1 0x3 SLOAD DUP4 MLOAD PUSH4 0xD505ACCF PUSH1 0xE0 SHL DUP2 MSTORE PUSH1 0x4 DUP2 ADD SWAP4 SWAP1 SWAP4 MSTORE ADDRESS PUSH1 0x24 DUP5 ADD MSTORE PUSH1 0x44 DUP4 ADD DUP13 SWAP1 MSTORE PUSH1 0x64 DUP4 ADD DUP12 SWAP1 MSTORE PUSH1 0xFF DUP11 AND PUSH1 0x84 DUP5 ADD MSTORE PUSH1 0xA4 DUP4 ADD DUP10 SWAP1 MSTORE PUSH1 0xC4 DUP4 ADD DUP9 SWAP1 MSTORE SWAP3 MLOAD PUSH1 0x1 PUSH1 0x1 PUSH1 0xA0 SHL SUB SWAP1 SWAP4 AND SWAP3 PUSH4 0xD505ACCF SWAP3 PUSH1 0xE4 DUP1 DUP3 ADD SWAP4 SWAP3 SWAP2 DUP3 SWAP1 SUB ADD DUP2 DUP4 DUP8 DUP1 EXTCODESIZE ISZERO DUP1 ISZERO PUSH2 0x1020 JUMPI PUSH1 0x0 DUP1 REVERT JUMPDEST POP GAS CALL ISZERO DUP1 ISZERO PUSH2 0x1034 JUMPI RETURNDATASIZE PUSH1 0x0 DUP1 RETURNDATACOPY RETURNDATASIZE PUSH1 0x0 REVERT JUMPDEST POP POP PUSH1 0x9 SLOAD PUSH1 0x40 MLOAD PUSH1 0x1 PUSH1 0x1 PUSH1 0xA0 SHL SUB SWAP1 SWAP2 AND SWAP3 POP DUP4 ISZERO PUSH2 0x8FC MUL SWAP2 POP DUP4 SWAP1 PUSH1 0x0 DUP2 DUP2 DUP2 DUP6 DUP9 DUP9 CALL SWAP4 POP POP POP POP ISZERO DUP1 ISZERO PUSH2 0x1072 JUMPI RETURNDATASIZE PUSH1 0x0 DUP1 RETURNDATACOPY RETURNDATASIZE PUSH1 0x0 REVERT JUMPDEST POP PUSH1 0x3 SLOAD PUSH2 0x1091 SWAP1 PUSH1 0x1 PUSH1 0x1 PUSH1 0xA0 SHL SUB AND CALLER ADDRESS DUP12 PUSH4 0xFFFFFFFF PUSH2 0x1348 AND JUMP JUMPDEST PUSH1 0x40 DUP1 MLOAD DUP10 DUP2 MSTORE SWAP1 MLOAD CALLER SWAP2 PUSH32 0x9E71BC8EEA02A63969F509818F2DAFB9254532904319F9DBDA79B67BD34A5F3D SWAP2 SWAP1 DUP2 SWAP1 SUB PUSH1 0x20 ADD SWAP1 LOG2 PUSH1 0x9 SLOAD PUSH1 0x40 DUP1 MLOAD PUSH1 0x1 PUSH1 0x1 PUSH1 0xA0 SHL SUB SWAP1 SWAP3 AND DUP3 MSTORE PUSH1 0x20 DUP3 ADD DUP4 SWAP1 MSTORE DUP1 MLOAD PUSH32 0xB3D3E40D8F7FFFB7B4CA23AF2605005B744E9C82D438F3C98A7BC597B50593E9 SWAP3 DUP2 SWAP1 SUB SWAP1 SWAP2 ADD SWAP1 LOG1 POP POP PUSH1 0x1 SLOAD DUP2 EQ PUSH2 0x1154 JUMPI PUSH1 0x40 DUP1 MLOAD PUSH3 0x461BCD PUSH1 0xE5 SHL DUP2 MSTORE PUSH1 0x20 PUSH1 0x4 DUP3 ADD MSTORE PUSH1 0x1F PUSH1 0x24 DUP3 ADD MSTORE PUSH1 0x0 DUP1 MLOAD PUSH1 0x20 PUSH2 0x1567 DUP4 CODECOPY DUP2 MLOAD SWAP2 MSTORE PUSH1 0x44 DUP3 ADD MSTORE SWAP1 MLOAD SWAP1 DUP2 SWAP1 SUB PUSH1 0x64 ADD SWAP1 REVERT JUMPDEST POP POP POP POP POP POP JUMP JUMPDEST PUSH1 0x0 DUP3 DUP3 GT ISZERO PUSH2 0x11B3 JUMPI PUSH1 0x40 DUP1 MLOAD PUSH3 0x461BCD PUSH1 0xE5 SHL DUP2 MSTORE PUSH1 0x20 PUSH1 0x4 DUP3 ADD MSTORE PUSH1 0x1E PUSH1 0x24 DUP3 ADD MSTORE PUSH32 0x536166654D6174683A207375627472616374696F6E206F766572666C6F770000 PUSH1 0x44 DUP3 ADD MSTORE SWAP1 MLOAD SWAP1 DUP2 SWAP1 SUB PUSH1 0x64 ADD SWAP1 REVERT JUMPDEST POP DUP1 DUP3 SUB JUMPDEST SWAP3 SWAP2 POP POP JUMP JUMPDEST PUSH1 0x0 DUP3 PUSH2 0x11CD JUMPI POP PUSH1 0x0 PUSH2 0x11B8 JUMP JUMPDEST DUP3 DUP3 MUL DUP3 DUP5 DUP3 DUP2 PUSH2 0x11DA JUMPI INVALID JUMPDEST DIV EQ PUSH2 0x51A JUMPI PUSH1 0x40 MLOAD PUSH3 0x461BCD PUSH1 0xE5 SHL DUP2 MSTORE PUSH1 0x4 ADD DUP1 DUP1 PUSH1 0x20 ADD DUP3 DUP2 SUB DUP3 MSTORE PUSH1 0x21 DUP2 MSTORE PUSH1 0x20 ADD DUP1 PUSH2 0x1587 PUSH1 0x21 SWAP2 CODECOPY PUSH1 0x40 ADD SWAP2 POP POP PUSH1 0x40 MLOAD DUP1 SWAP2 SUB SWAP1 REVERT JUMPDEST PUSH1 0x0 DUP1 DUP3 GT PUSH2 0x126D JUMPI PUSH1 0x40 DUP1 MLOAD PUSH3 0x461BCD PUSH1 0xE5 SHL DUP2 MSTORE PUSH1 0x20 PUSH1 0x4 DUP3 ADD MSTORE PUSH1 0x1A PUSH1 0x24 DUP3 ADD MSTORE PUSH32 0x536166654D6174683A206469766973696F6E206279207A65726F000000000000 PUSH1 0x44 DUP3 ADD MSTORE SWAP1 MLOAD SWAP1 DUP2 SWAP1 SUB PUSH1 0x64 ADD SWAP1 REVERT JUMPDEST PUSH1 0x0 DUP3 DUP5 DUP2 PUSH2 0x1278 JUMPI INVALID JUMPDEST DIV SWAP5 SWAP4 POP POP POP POP JUMP JUMPDEST PUSH1 0x0 DUP3 DUP3 ADD DUP4 DUP2 LT ISZERO PUSH2 0x51A JUMPI PUSH1 0x40 DUP1 MLOAD PUSH3 0x461BCD PUSH1 0xE5 SHL DUP2 MSTORE PUSH1 0x20 PUSH1 0x4 DUP3 ADD MSTORE PUSH1 0x1B PUSH1 0x24 DUP3 ADD MSTORE PUSH32 0x536166654D6174683A206164646974696F6E206F766572666C6F770000000000 PUSH1 0x44 DUP3 ADD MSTORE SWAP1 MLOAD SWAP1 DUP2 SWAP1 SUB PUSH1 0x64 ADD SWAP1 REVERT JUMPDEST PUSH1 0x40 DUP1 MLOAD PUSH1 0x1 PUSH1 0x1 PUSH1 0xA0 SHL SUB DUP5 AND PUSH1 0x24 DUP3 ADD MSTORE PUSH1 0x44 DUP1 DUP3 ADD DUP5 SWAP1 MSTORE DUP3 MLOAD DUP1 DUP4 SUB SWAP1 SWAP2 ADD DUP2 MSTORE PUSH1 0x64 SWAP1 SWAP2 ADD SWAP1 SWAP2 MSTORE PUSH1 0x20 DUP2 ADD DUP1 MLOAD PUSH1 0x1 PUSH1 0x1 PUSH1 0xE0 SHL SUB AND PUSH4 0xA9059CBB PUSH1 0xE0 SHL OR SWAP1 MSTORE PUSH2 0x132D SWAP1 DUP5 SWAP1 PUSH2 0x13A8 JUMP JUMPDEST POP POP POP JUMP JUMPDEST PUSH1 0x0 DUP2 DUP4 LT PUSH2 0x1341 JUMPI DUP2 PUSH2 0x51A JUMP JUMPDEST POP SWAP1 SWAP2 SWAP1 POP JUMP JUMPDEST PUSH1 0x40 DUP1 MLOAD PUSH1 0x1 PUSH1 0x1 PUSH1 0xA0 SHL SUB DUP6 DUP2 AND PUSH1 0x24 DUP4 ADD MSTORE DUP5 AND PUSH1 0x44 DUP3 ADD MSTORE PUSH1 0x64 DUP1 DUP3 ADD DUP5 SWAP1 MSTORE DUP3 MLOAD DUP1 DUP4 SUB SWAP1 SWAP2 ADD DUP2 MSTORE PUSH1 0x84 SWAP1 SWAP2 ADD SWAP1 SWAP2 MSTORE PUSH1 0x20 DUP2 ADD DUP1 MLOAD PUSH1 0x1 PUSH1 0x1 PUSH1 0xE0 SHL SUB AND PUSH4 0x23B872DD PUSH1 0xE0 SHL OR SWAP1 MSTORE PUSH2 0x13A2 SWAP1 DUP6 SWAP1 PUSH2 0x13A8 JUMP JUMPDEST POP POP POP POP JUMP JUMPDEST PUSH2 0x13BA DUP3 PUSH1 0x1 PUSH1 0x1 PUSH1 0xA0 SHL SUB AND PUSH2 0x1560 JUMP JUMPDEST PUSH2 0x140B JUMPI PUSH1 0x40 DUP1 MLOAD PUSH3 0x461BCD PUSH1 0xE5 SHL DUP2 MSTORE PUSH1 0x20 PUSH1 0x4 DUP3 ADD MSTORE PUSH1 0x1F PUSH1 0x24 DUP3 ADD MSTORE PUSH32 0x5361666545524332303A2063616C6C20746F206E6F6E2D636F6E747261637400 PUSH1 0x44 DUP3 ADD MSTORE SWAP1 MLOAD SWAP1 DUP2 SWAP1 SUB PUSH1 0x64 ADD SWAP1 REVERT JUMPDEST PUSH1 0x0 PUSH1 0x60 DUP4 PUSH1 0x1 PUSH1 0x1 PUSH1 0xA0 SHL SUB AND DUP4 PUSH1 0x40 MLOAD DUP1 DUP3 DUP1 MLOAD SWAP1 PUSH1 0x20 ADD SWAP1 DUP1 DUP4 DUP4 JUMPDEST PUSH1 0x20 DUP4 LT PUSH2 0x1449 JUMPI DUP1 MLOAD DUP3 MSTORE PUSH1 0x1F NOT SWAP1 SWAP3 ADD SWAP2 PUSH1 0x20 SWAP2 DUP3 ADD SWAP2 ADD PUSH2 0x142A JUMP JUMPDEST PUSH1 0x1 DUP4 PUSH1 0x20 SUB PUSH2 0x100 EXP SUB DUP1 NOT DUP3 MLOAD AND DUP2 DUP5 MLOAD AND DUP1 DUP3 OR DUP6 MSTORE POP POP POP POP POP POP SWAP1 POP ADD SWAP2 POP POP PUSH1 0x0 PUSH1 0x40 MLOAD DUP1 DUP4 SUB DUP2 PUSH1 0x0 DUP7 GAS CALL SWAP2 POP POP RETURNDATASIZE DUP1 PUSH1 0x0 DUP2 EQ PUSH2 0x14AB JUMPI PUSH1 0x40 MLOAD SWAP2 POP PUSH1 0x1F NOT PUSH1 0x3F RETURNDATASIZE ADD AND DUP3 ADD PUSH1 0x40 MSTORE RETURNDATASIZE DUP3 MSTORE RETURNDATASIZE PUSH1 0x0 PUSH1 0x20 DUP5 ADD RETURNDATACOPY PUSH2 0x14B0 JUMP JUMPDEST PUSH1 0x60 SWAP2 POP JUMPDEST POP SWAP2 POP SWAP2 POP DUP2 PUSH2 0x1507 JUMPI PUSH1 0x40 DUP1 MLOAD PUSH3 0x461BCD PUSH1 0xE5 SHL DUP2 MSTORE PUSH1 0x20 PUSH1 0x4 DUP3 ADD DUP2 SWAP1 MSTORE PUSH1 0x24 DUP3 ADD MSTORE PUSH32 0x5361666545524332303A206C6F772D6C6576656C2063616C6C206661696C6564 PUSH1 0x44 DUP3 ADD MSTORE SWAP1 MLOAD SWAP1 DUP2 SWAP1 SUB PUSH1 0x64 ADD SWAP1 REVERT JUMPDEST DUP1 MLOAD ISZERO PUSH2 0x13A2 JUMPI DUP1 DUP1 PUSH1 0x20 ADD SWAP1 MLOAD PUSH1 0x20 DUP2 LT ISZERO PUSH2 0x1523 JUMPI PUSH1 0x0 DUP1 REVERT JUMPDEST POP MLOAD PUSH2 0x13A2 JUMPI PUSH1 0x40 MLOAD PUSH3 0x461BCD PUSH1 0xE5 SHL DUP2 MSTORE PUSH1 0x4 ADD DUP1 DUP1 PUSH1 0x20 ADD DUP3 DUP2 SUB DUP3 MSTORE PUSH1 0x2A DUP2 MSTORE PUSH1 0x20 ADD DUP1 PUSH2 0x15D2 PUSH1 0x2A SWAP2 CODECOPY PUSH1 0x40 ADD SWAP2 POP POP PUSH1 0x40 MLOAD DUP1 SWAP2 SUB SWAP1 REVERT JUMPDEST EXTCODESIZE ISZERO ISZERO SWAP1 JUMP INVALID MSTORE PUSH6 0x656E7472616E PUSH4 0x79477561 PUSH19 0x643A207265656E7472616E742063616C6C0053 PUSH2 0x6665 0x4D PUSH2 0x7468 GASPRICE KECCAK256 PUSH14 0x756C7469706C69636174696F6E20 PUSH16 0x766572666C6F7743616C6C6572206973 KECCAK256 PUSH15 0x6F7420526577617264734469737472 PUSH10 0x627574696F6E20636F6E PUSH21 0x726163745361666545524332303A20455243323020 PUSH16 0x7065726174696F6E20646964206E6F74 KECCAK256 PUSH20 0x756363656564A265627A7A72315820C2D53E5069 LT 0xF8 0xED PUSH1 0x12 0xF7 0xE7 SMOD SWAP14 KECCAK256 0xF6 0xC2 0xEB 0xEB MSTORE8 0x2C SWAP6 0x4C 0x4F 0xD8 KECCAK256 DUP5 COINBASE SWAP15 PC SSTORE PUSH31 0x64736F6C634300051100320000000000000000000000000000000000000000 "
    }
  },
  "bytecode": "608060405260006004556000600555624f1a0060065534801561002157600080fd5b506040516116e63803806116e68339818101604052608081101561004457600080fd5b5080516020820151604083015160609093015160018055600280546001600160a01b03199081166001600160a01b039485161790915560038054821695841695909517909455600080548516938316939093178355600980549094169116179091556116309081906100b690396000f3fe6080604052600436106101655760003560e01c806372f702f3116100d1578063cd3daf9d1161008a578063df136d6511610064578063df136d6514610412578063e9fad8ee14610427578063ebe2b12b1461043c578063ecd9ba821461045157610165565b8063cd3daf9d146103d3578063d1af0c7d146103e8578063daa5ee71146103fd57610165565b806372f702f31461032f5780637b0a47ee1461034457806380faa57d146103595780638b8763471461036e578063a694fc3a146103a1578063c8f33c91146103be57610165565b8063386a952511610123578063386a9525146102625780633c6b16ab146102775780633d18b912146102a15780633fc6df6e146102b65780636aa00371146102e757806370a08231146102fc57610165565b80628cc2621461016a5780630700037d146101af57806315c2ba14146101e257806318160ddd1461020e5780631c1f78eb146102235780632e1a7d4d14610238575b600080fd5b34801561017657600080fd5b5061019d6004803603602081101561018d57600080fd5b50356001600160a01b0316610489565b60408051918252519081900360200190f35b3480156101bb57600080fd5b5061019d600480360360208110156101d257600080fd5b50356001600160a01b0316610521565b3480156101ee57600080fd5b5061020c6004803603602081101561020557600080fd5b5035610533565b005b34801561021a57600080fd5b5061019d6106e9565b34801561022f57600080fd5b5061019d6106f0565b34801561024457600080fd5b5061020c6004803603602081101561025b57600080fd5b5035610710565b34801561026e57600080fd5b5061019d61089f565b34801561028357600080fd5b5061020c6004803603602081101561029a57600080fd5b50356108a5565b3480156102ad57600080fd5b5061020c610a5b565b3480156102c257600080fd5b506102cb610b7f565b604080516001600160a01b039092168252519081900360200190f35b3480156102f357600080fd5b506102cb610b8e565b34801561030857600080fd5b5061019d6004803603602081101561031f57600080fd5b50356001600160a01b0316610b9d565b34801561033b57600080fd5b506102cb610bb8565b34801561035057600080fd5b5061019d610bc7565b34801561036557600080fd5b5061019d610bcd565b34801561037a57600080fd5b5061019d6004803603602081101561039157600080fd5b50356001600160a01b0316610bdc565b61020c600480360360208110156103b757600080fd5b5035610bee565b3480156103ca57600080fd5b5061019d610e03565b3480156103df57600080fd5b5061019d610e09565b3480156103f457600080fd5b506102cb610e65565b34801561040957600080fd5b506102cb610e74565b34801561041e57600080fd5b5061019d610e83565b34801561043357600080fd5b5061020c610e89565b34801561044857600080fd5b5061019d610eac565b61020c600480360360a081101561046757600080fd5b5080359060208101359060ff6040820135169060608101359060800135610eb2565b6001600160a01b0381166000908152600b6020908152604080832054600a909252822054829161051a9161050e90670de0b6b3a764000090610502906104dd906104d1610e09565b9063ffffffff61115c16565b6001600160a01b0389166000908152600d60205260409020549063ffffffff6111be16565b9063ffffffff61121716565b9063ffffffff61128116565b9392505050565b600b6020526000908152604090205481565b6000546001600160a01b0316331461057c5760405162461bcd60e51b815260040180806020018281038252602a8152602001806115a8602a913960400191505060405180910390fd5b6000610586610e09565b600855610591610bcd565b6007556001600160a01b038116156105d8576105ac81610489565b6001600160a01b0382166000908152600b6020908152604080832093909355600854600a909152919020555b6004544210610648576006546105f590839063ffffffff61121716565b600555426007819055600654610611919063ffffffff61128116565b6004556040805183815290517fcb94909754d27c309adf4167150f1f7aa04de40b6a0e6bb98b2ae80a2bf438f69181900360200190a15b60045460009061065e904263ffffffff61115c16565b90506000610677600554836111be90919063ffffffff16565b60065490915061069190610502868463ffffffff61128116565b6005554260078190556006546106ad919063ffffffff61128116565b6004556040805185815290517fcb94909754d27c309adf4167150f1f7aa04de40b6a0e6bb98b2ae80a2bf438f69181900360200190a150505050565b600c545b90565b60008061070a6006546005546111be90919063ffffffff16565b91505090565b6001805481019081905533610723610e09565b60085561072e610bcd565b6007556001600160a01b038116156107755761074981610489565b6001600160a01b0382166000908152600b6020908152604080832093909355600854600a909152919020555b600083116107be576040805162461bcd60e51b8152602060048201526011602482015270043616e6e6f74207769746864726177203607c1b604482015290519081900360640190fd5b600c546107d1908463ffffffff61115c16565b600c55336000908152600d60205260409020546107f4908463ffffffff61115c16565b336000818152600d6020526040902091909155600354610820916001600160a01b0390911690856112db565b60408051848152905133917f7084f5476618d8e60b11ef0d7d3f06914655adb8793e28ff7f018d4c76d505d5919081900360200190a250600154811461089b576040805162461bcd60e51b815260206004820152601f6024820152600080516020611567833981519152604482015290519081900360640190fd5b5050565b60065481565b6000546001600160a01b031633146108ee5760405162461bcd60e51b815260040180806020018281038252602a8152602001806115a8602a913960400191505060405180910390fd5b60006108f8610e09565b600855610903610bcd565b6007556001600160a01b0381161561094a5761091e81610489565b6001600160a01b0382166000908152600b6020908152604080832093909355600854600a909152919020555b60045442106109ba5760065461096790839063ffffffff61121716565b600555426007819055600654610983919063ffffffff61128116565b6004556040805183815290517fde88a922e0d3b88b24e9623efeb464919c6bf9f66857a65e2bfcf2ce87a9433d9181900360200190a15b6004546000906109d0904263ffffffff61115c16565b905060006109e9600554836111be90919063ffffffff16565b600654909150610a0390610502868463ffffffff61128116565b600555426007819055600654610a1f919063ffffffff61128116565b6004556040805185815290517fde88a922e0d3b88b24e9623efeb464919c6bf9f66857a65e2bfcf2ce87a9433d9181900360200190a150505050565b6001805481019081905533610a6e610e09565b600855610a79610bcd565b6007556001600160a01b03811615610ac057610a9481610489565b6001600160a01b0382166000908152600b6020908152604080832093909355600854600a909152919020555b336000908152600b60205260409020548015610b3657336000818152600b6020526040812055600254610aff916001600160a01b0390911690836112db565b60408051828152905133917fe2403640ba68fed3a2f88b7557551d1993f84b99bb10ff833f0cf8db0c5e0486919081900360200190a25b50506001548114610b7c576040805162461bcd60e51b815260206004820152601f6024820152600080516020611567833981519152604482015290519081900360640190fd5b50565b6000546001600160a01b031681565b6009546001600160a01b031681565b6001600160a01b03166000908152600d602052604090205490565b6003546001600160a01b031681565b60055481565b60008061070a42600454611332565b600a6020526000908152604090205481565b6001805481019081905533610c01610e09565b600855610c0c610bcd565b6007556001600160a01b03811615610c5357610c2781610489565b6001600160a01b0382166000908152600b6020908152604080832093909355600854600a909152919020555b67010a741a4627800083610c9f576040805162461bcd60e51b815260206004820152600e60248201526d043616e6e6f74207374616b6520360941b604482015290519081900360640190fd5b600c54610cb2908563ffffffff61128116565b600c55336000908152600d6020526040902054610cd5908563ffffffff61128116565b336000908152600d60205260408082209290925560095491516001600160a01b03909216916108fc84150291849190818181858888f19350505050158015610d21573d6000803e3d6000fd5b50600354610d40906001600160a01b031633308763ffffffff61134816565b60408051858152905133917f9e71bc8eea02a63969f509818f2dafb9254532904319f9dbda79b67bd34a5f3d919081900360200190a2600954604080516001600160a01b0390921682526020820183905280517fb3d3e40d8f7fffb7b4ca23af2605005b744e9c82d438f3c98a7bc597b50593e99281900390910190a15050600154811461089b576040805162461bcd60e51b815260206004820152601f6024820152600080516020611567833981519152604482015290519081900360640190fd5b60075481565b6000600c5460001415610e1f57506008546106ed565b600061070a610e56600c54610502670de0b6b3a7640000610e4a600554610e4a6007546104d1610bcd565b9063ffffffff6111be16565b6008549063ffffffff61128116565b6002546001600160a01b031681565b6009546001600160a01b031690565b60085481565b336000908152600d6020526040902054610ea290610710565b610eaa610a5b565b565b60045481565b6001805481019081905533610ec5610e09565b600855610ed0610bcd565b6007556001600160a01b03811615610f1757610eeb81610489565b6001600160a01b0382166000908152600b6020908152604080832093909355600854600a909152919020555b67010a741a4627800087610f63576040805162461bcd60e51b815260206004820152600e60248201526d043616e6e6f74207374616b6520360941b604482015290519081900360640190fd5b600c54610f76908963ffffffff61128116565b600c55336000908152600d6020526040902054610f99908963ffffffff61128116565b336000818152600d602052604080822093909355600354835163d505accf60e01b81526004810193909352306024840152604483018c9052606483018b905260ff8a16608484015260a4830189905260c4830188905292516001600160a01b039093169263d505accf9260e480820193929182900301818387803b15801561102057600080fd5b505af1158015611034573d6000803e3d6000fd5b50506009546040516001600160a01b03909116925083156108fc02915083906000818181858888f19350505050158015611072573d6000803e3d6000fd5b50600354611091906001600160a01b031633308b63ffffffff61134816565b60408051898152905133917f9e71bc8eea02a63969f509818f2dafb9254532904319f9dbda79b67bd34a5f3d919081900360200190a2600954604080516001600160a01b0390921682526020820183905280517fb3d3e40d8f7fffb7b4ca23af2605005b744e9c82d438f3c98a7bc597b50593e99281900390910190a150506001548114611154576040805162461bcd60e51b815260206004820152601f6024820152600080516020611567833981519152604482015290519081900360640190fd5b505050505050565b6000828211156111b3576040805162461bcd60e51b815260206004820152601e60248201527f536166654d6174683a207375627472616374696f6e206f766572666c6f770000604482015290519081900360640190fd5b508082035b92915050565b6000826111cd575060006111b8565b828202828482816111da57fe5b041461051a5760405162461bcd60e51b81526004018080602001828103825260218152602001806115876021913960400191505060405180910390fd5b600080821161126d576040805162461bcd60e51b815260206004820152601a60248201527f536166654d6174683a206469766973696f6e206279207a65726f000000000000604482015290519081900360640190fd5b600082848161127857fe5b04949350505050565b60008282018381101561051a576040805162461bcd60e51b815260206004820152601b60248201527f536166654d6174683a206164646974696f6e206f766572666c6f770000000000604482015290519081900360640190fd5b604080516001600160a01b038416602482015260448082018490528251808303909101815260649091019091526020810180516001600160e01b031663a9059cbb60e01b17905261132d9084906113a8565b505050565b6000818310611341578161051a565b5090919050565b604080516001600160a01b0385811660248301528416604482015260648082018490528251808303909101815260849091019091526020810180516001600160e01b03166323b872dd60e01b1790526113a29085906113a8565b50505050565b6113ba826001600160a01b0316611560565b61140b576040805162461bcd60e51b815260206004820152601f60248201527f5361666545524332303a2063616c6c20746f206e6f6e2d636f6e747261637400604482015290519081900360640190fd5b60006060836001600160a01b0316836040518082805190602001908083835b602083106114495780518252601f19909201916020918201910161142a565b6001836020036101000a0380198251168184511680821785525050505050509050019150506000604051808303816000865af19150503d80600081146114ab576040519150601f19603f3d011682016040523d82523d6000602084013e6114b0565b606091505b509150915081611507576040805162461bcd60e51b815260206004820181905260248201527f5361666545524332303a206c6f772d6c6576656c2063616c6c206661696c6564604482015290519081900360640190fd5b8051156113a25780806020019051602081101561152357600080fd5b50516113a25760405162461bcd60e51b815260040180806020018281038252602a8152602001806115d2602a913960400191505060405180910390fd5b3b15159056fe5265656e7472616e637947756172643a207265656e7472616e742063616c6c00536166654d6174683a206d756c7469706c69636174696f6e206f766572666c6f7743616c6c6572206973206e6f742052657761726473446973747269627574696f6e20636f6e74726163745361666545524332303a204552433230206f7065726174696f6e20646964206e6f742073756363656564a265627a7a72315820c2d53e506910f8ed6012f7e7079d20f6c2ebeb532c954c4fd82084419e58557e64736f6c634300051100320000000000000000000000005d04ded2bef7190e1bf3593aceb78d33e375d629000000000000000000000000aa19673aa1b483a5c4f73b446b4f851629a7e7d6000000000000000000000000ac0fe6c0b239eedcc12bc3e997e5492b04cc61c300000000000000000000000027f976c479e00428bcfe33b40a9ee818917d4256"
}